:020000041000EA
:101000004805002019100010000000009910001081
:1010100000040100000100001149124A124B00F0C7
:1010200018F8124880471249124A134B00F011F881
:101030001249134A134B00F00CF81349134A0020CD
:10104000521A02DD043A8850FCDC114880471148EE
:1010500080479B1A03DD043BC858D050FBDC704727
:10106000A83300100C00002044010020ED100010F7
:10107000E03400104805002058080020F037001028
:101080005808002058080020580800204C23002051
:10109000F1310010A51F0010FEE700000D4A08B551
:1010A00013680D491B041B0E0B60FF2112681140D1
:1010B0000A4A1160002B03D1094A0A4B1A6008BD85
:1010C0001B025918084800F0F3F9064B400018605D
:1010D000F5E7C04600030140580800205C080020E6
:1010E0000048E801FC3F0020000024F408B500F0AF
:1010F000DFFD00F0E7FD08BDF0B503244746261CE0
:1011000080B4F8270E40F600B7408B089B00C31848
:101110001D69B046BD434F00BC401D61456F0426AC
:10112000A543456707250D40AD00AE40CC08A4009F
:101130000419276CB74327645678276CAE40351CDA
:101140003D4325640A4CA0420CD0546812788C4070
:10115000446040468240161C19690E431E6104BC5F
:101160009046F0BD01258D40046EAC430466ECE76B
:1011700000020440154B10B55B68DB0701D5002069
:1011800010BD041C8020C00000F058F8002817D1C2
:10119000208A00F0C1F918220D498B6C1A42FCD14B
:1011A00022680A4B0A491A6262685A6206228B6CEC
:1011B0001A42FCD1A268054B9A61E268DA61DEE767
:1011C0008020C00000F022F8E2E7C046000A01409B
:1011D00000000140024A1369184310617047C0467D
:1011E000000A0140C0230421064A5362536A19428F
:1011F000FCD1054AD3681843D060C322014B5A6220
:101200007047C0460000014000030140C023042194
:10121000084A5362536A1942FCD18021064AC90523
:1012200013691843106113680B42FCD1C322014BB0
:101230005A6270470000014000030140034B9B6865
:101240001840431E9841C0B27047C0460003014099
:10125000F8B5C02304242D4A5362536A1C42FCD1C2
:101260002B4A2C4D1468136824041D402A4B240E6D
:101270002B430B4380211360C90513680B42FCD13B
:10128000844229D98021254B8600214A9C46224F41
:10129000C905B4420CD965461368A4082B403B43EA
:1012A00025022B43136013680B42FCD1B442F2D8E1
:1012B000174A1A4B116800020B4017490B43802153
:1012C00003431360C90513680B42FCD1C3220F4BC3
:1012D0005A62FFF7E3FEF8BD80210D4A0F4F0E4E14
:1012E000C905A3009842E3D9002C0AD0A5021C1C12
:1012F00013683B4033432B43136013680B42FCD10C
:10130000EFE780250424ED00F2E7C046000001402D
:101310000003014000FF0FC00000F03FFF000FC0BE
:10132000C02304210B4A10B55362536A1942FCD101
:1013300082684168084C11432368084A1340C3225D
:101340000B432360034B5A6243780178181CFFF764
:101350007FFF10BD0000014000030140FFFFF0FFD0
:1013600010B5C30713D40023012401E0202B0CD0B7
:10137000021C0133DA401442F8D00120202B03D0A4
:101380000020044A9B00995010BD0120FCE7002377
:10139000F6E7C04660080020F8B51049104B800001
:1013A0001A684558002415409A682A439A60002D0F
:1013B00013D001260B4F01E0202C0ED02B1CE34054
:1013C0001E4207D0331CA3409D43A300DB59002BD2
:1013D00000D098470134002DEED1F8BD50320010F6
:1013E000380001406008002038B50A4B041C0D1C71
:1013F000984202D10420FFF709FF8022E3685200DF
:101400001343E3602168044B0B40A9031943216097
:1014100038BDC04600000448FF3FFFFF0B68436132
:101420004B799B06DB0F1B0543600B791B071B0FDA
:1014300043624B791B071B0F03624B79DB06DB0F03
:1014400083610B791B09C3627047C046826A034BF4
:1014500013400A021343836241627047FFF0FFFFAB
:10146000A82330B5C55809290BD8074B8900CC589B
:10147000E343064C09598A402B401A43A823C25023
:1014800030BD0C21024BF6E7843200105C320010B4
:10149000FFCFFFFF10B5032449008A408C40111C88
:1014A000436FA3434367436F1943416710BDC04671
:1014B0000422034B5A6318625962986A7047C04607
:1014C000000003400022034B5A6318625962986A75
:1014D0007047C04600000340012205498B6C1A4248
:1014E000FCD10123034A51680B4353607047C04647
:1014F00000000140000A0140012205498B6C1A429C
:10150000FCD10121034A53688B4353607047C046A6
:1015100000000140000A0140012206498B6C1A427A
:10152000FCD1054A000453681B041B0C184350608F
:101530007047C04600000140000A0140FF2238B554
:101540000D1C041C0D4B01201A60FFF75FFE6B6938
:10155000236080236A681B0213438022A350A023C8
:10156000AA68E250EA680433E2502A69DD33FF33A7
:10157000E2502A68C93BFF3BE25038BD00050140FC
:10158000002A05D0054A283311409B0019507047A6
:10159000034A283311409B001950F8E700001F0749
:1015A0001F07000080238021C25809060A43C25049
:1015B0000C4AD158C0239B02194205D080218020BB
:1015C000490513580B42FCD18023074AD158C02348
:1015D0009B02194205D080218020490513580B42F7
:1015E000FCD17047000403480008034810B50329E4
:1015F00000D90439A0230F245B00C258A243C25073
:10160000C2581143C15010BDA023C2589C46304B54
:10161000F0B51A40141C1F274A792E4D5207520D5F
:1016200022430C79BA43E406E40E22436446025195
:101630000259294E2A40141CCA79520752092243E2
:101640008C793240E406E40A2243644602510434B1
:1016500002591A404B7A5B075B0D13430A7ABB436E
:10166000D206D20E1343035103598A7A1D40CB7A16
:10167000D2065B075B092B433340D20A1343035165
:1016800080230A69C250CA683833C250CB781D071C
:10169000DF069C065B06DA0F4B88FF0F9B059E0951
:1016A0000B7880215B075B0F3343F826760083516C
:1016B000835909063F070B43AD0F3B43AD06E40FCB
:1016C0002B4364072343191C93070B438351F0BD3D
:1016D000FFF8FFFFFFFFFFF8FFFFE0FF802210B5DC
:1016E00003248358A3431943815010BD002907D018
:1016F000012900D070478423C2581143C150F9E733
:101700008022012381580B438350F3E7274BF0B528
:101710004646984684224F4644468C469958244B68
:10172000C0B41940A150234903278C58224E2340AE
:101730008B5063461B78B1461F403D1C6C1EA54173
:101740004446A4581B07344046469B0F1B02ED023B
:101750001C432C43B4504E468C58264033432B43F5
:101760008B506246154B526813438022920083507F
:10177000634601229B681343812292008350022F0B
:101780000ED084238020094AC004D1580143D1508F
:101790000849CA580243CA500CBC90469946F0BD4D
:1017A0008021835849020B438350EAE70004034831
:1017B000FFFFFFFB00080348FFFCFFFF00808000E5
:1017C00070B5012488258C404359A343147B8C4079
:1017D00023434351537B5CB2002C0CDB012921D005
:1017E000002917D01C1C002364B29C40B026231C87
:1017F00085592B438351C8245568035980312B43A5
:10180000035108349568035989002B430351136829
:101810000B5070BDB0241F250359AB430351547BBB
:101820000023E1E7B024034B05592B400351547BBF
:101830000823D9E7FFE0FFFF7047C0462622825CFD
:10184000031C0120002A07D021229A5C0020002AD4
:1018500002D15B690132DA607047C0462123C25C65
:10186000203B002A01D0181C704741698A68134246
:10187000F9D02622825C002AF5D0086903430B6167
:101880000023F0E7F8B52123C75C002F46D082681B
:1018900001238A4240D84568A9423DD8EB0B9942C2
:1018A00049D900230E262A1C5C1CF31ADA40231C9B
:1018B0009142F8D80123002F2ED10369051CC0697D
:1018C0001A6803790F37E6B2BB433C4023430371E8
:1018D000081C0023002101F0E1F820235B42E318FB
:1018E00022D4081CD840E140144A002301F0B6F885
:1018F00080B2012800D901380F216884314068691D
:10190000FFF7A4FD6B696A8C5A630022DA632B69C6
:10191000EA689B681A610023181CF8BD43699A683D
:101920000123D207F8D4B2E720230A1C1B1B9A40DC
:10193000E0401043D7E70024BCE7C04600E1F505CE
:1019400070B5041C006900F04DF90126051C301C1F
:1019500023699968237ECA689840031C1343CB60AF
:101960006069E169FFF75AFD638C6069E26843636F
:101970000023C36323699B681A612523E35C002B62
:101980000DD1022302691343036126220123A354CC
:10199000023AA25C002A00D0C360281C70BD20233C
:1019A0000021E25CFFF75CFDA4236069C258164386
:1019B000C650E6E7262208B5825C031C0020002AF8
:1019C00003D121329A5C002A00D008BD181CFFF711
:1019D000B7FFFAE710B54368041CDA7898789200EC
:1019E000400010435A7810431A79D20010435A79B4
:1019F000520110439A799201104304D1DB790020FF
:101A0000012B07D010BDFFF7E5FB63680120DB79F0
:101A1000012BF7D180204000FFF7DCFB0120F1E72C
:101A200038B5041C43680220996800F0D7F8636851
:101A3000051CDA790020012A00D038BDD9680430AD
:101A400000F0CCF82840C0B2F7E7C04638B5051C16
:101A5000124800F069F8041E02D12B7A002B01D045
:101A6000201C38BD2868FFF785FB002801D0012421
:101A7000F6E7281CFFF7AEFF002806D16B681B783D
:101A8000012B08D001232B72EAE7281CFFF7C8FFBF
:101A90000028E5D1F2E7FFF71FFDF3E77C05002002
:101AA000F0B5057843786AB2002A20DB92081C4919
:101AB000032492005118FF22C0272C40E4009446D2
:101AC000A240BF00CE5996439A0163461A40131CA8
:101AD000A3403343CB518378002B06D01F231D40F6
:101AE0001E3BAB401D1C0E4B1D600020F0BD0D4980
:101AF000FF278C460F220321ECB2224021403C1CE0
:101B0000C9008C40083A920892006244D6699B0151
:101B1000A6433B408B40311C1943D161DBE7C046F3
:101B200000E100E000ED00E0F0B5474680B4037945
:101B30000126002B03D0301C04BC9046F0BDC0250C
:101B400004681A49AD0022784F59FF3392019F4330
:101B50001A403A434A514A59154F944662789201C5
:101B60001A40120290466246174042463A434A5192
:101B7000A2784F59920113400E4A1B043A40134376
:101B80004B51E378002B00D00E602379002B02D05C
:101B90000222064B1A606379002B02D00422034B09
:101BA0001A60012300260371C5E7C04600E100E08A
:101BB000FF00FFFFFFFF00FF08B50020FFF7ECFB71
:101BC00008BDC04608B50120FFF7E6FB08BDC046CA
:101BD00008B50220FFF7E0FB08BDC04608B5FFF7D7
:101BE000BFFB08BD10B5437B002B0CD1041C017B4F
:101BF0008068FFF7F9FB8021A2684900D3680B4396
:101C0000D36001236373002010BDC046F8B54F4672
:101C10004646C0B4037D022B04D0181C0CBC904671
:101C20009946F8BD041CC068A168FFF787FC8023B3
:101C300098467F3B251C0026994600272B6803CB3E
:101C4000FFF7E2FC2B6803211868FFF747FD2B68BC
:101C50001B7A002B0AD14346E1684846CA58331C18
:101C600010339840031C134342468B50F1B2206955
:101C7000FFF73CFD08CD5F72012E05D1637D002B7F
:101C800004D100232375C8E70126D7E7E068FFF7F2
:101C900089FCF6E710B5041C017B021D0068FFF704
:101CA0002BFA2068217B627BFFF7F4FB002010BD3C
:101CB0007047C0460378002B01D101330370002028
:101CC0007047C04630B585B001A8021C034B32CB2B
:101CD00032C2FFF725FB05B030BDC0463C330010D3
:101CE000F8B54F464646C0B4037E022B04D0181CFC
:101CF0000CBC90469946F8BD041CC068FFF786FFEF
:101D0000E368051CD868A368002219680023FFF760
:101D100037FCE3686168D868FFF7F8FCC0235B0014
:101D20009846803BFF3B002799462268BB009E589F
:101D3000717BB0683268FFF743FDA02189008C46B3
:101D4000336872689B78B1681B0712689B0E634406
:101D50005A504246E368D868337B9B00C3189958B1
:101D6000727B4E469640321C0A4341465A50012F20
:101D700044D163681B7A1B072DD52369002B2AD019
:101D80001A685B68D6B271B29946002938DB03261F
:101D9000274B89088900CF183240C023D600FF2284
:101DA0009B00F9589C46131CB34099434B46884608
:101DB00099010A40B240434613436246BB50617EDC
:101DC000FFF714FC1F2223691B6813401E3A9A4038
:101DD000131C174A13606369002B00D09847A37E39
:101DE000002B08D081228020E3689200D96880000F
:101DF0008B5803438B5025762B1C78E7012794E7FB
:101E00000F220C4B023732403E40FC379C463B1CB5
:101E1000F600B340083A920892006244D1699943AF
:101E20004B469B013B40B3401943D161C7E7C046D5
:101E300000E100E000ED00E08122C3688020D96865
:101E400092008B58800003438B507047C02189005B
:101E50008C46036882689B781B079B0E63449858E6
:101E600080B2704708B51148FFF724FF002800D062
:101E700008BD0F48FFF7EAFD0028F9D10D48FFF72C
:101E800099FD0028F4D10C48FFF72AFF0028EFD174
:101E90000A48FFF705FE0028EAD10948FFF7FAFED5
:101EA0000028E5D10748FFF7F5FEE1E7E808002044
:101EB0007005002048050020D4050020D032001015
:101EC0002C3300101C330010074B1A68197B802339
:101ED0005B028B405360054BC046013B002BFBD19E
:101EE000034A13607047C0461C3300101BB7000044
:101EF000F4080020034B1A68197B80235B028B4097
:101F0000536070471C330010F0B5474698460C1CD0
:101F1000061C80B406AB1D88111C6D0007AB2A1C83
:101F200010481F7801F08AF941462A1C0E4801F03A
:101F300085F9621E9200311D0C4801F07FF90C4BAF
:101F40001F70012F05D900220A4B1A6004BC90466D
:101F5000F0BD099800F034FF074900F0FFFD054B84
:101F60001860F3E74C0900204C0B00204C0D0020BA
:101F70003C060020480900200000B040074B1870C4
:101F8000074B1A68197B012803D901238B40536042
:101F9000704780235B028B405360F9E728060020DE
:101FA0002C33001070B584B0FFF75CFF214B224E3C
:101FB0001A68197B01238B405360204B1A68197BE8
:101FC00080235B028B401E495360088802AB188057
:101FD00089781C4A997069461B4B0393331D11CBBA
:101FE00011C10024516833681068926800F038F815
:101FF000164800F0E9F8164800F0F4F8154800F02B
:10200000D5F8154800F0FCF8144D002C05D12B78BC
:10201000002BFCD000F090F801242B78002B05D089
:10202000706800F0A1F800F0A9F8EEE700F090F871
:102030000024F5E72C3300102C0600201C33001080
:10204000380600204006002048050020C91E001068
:10205000F51E0010091F00107D1F0010F808002059
:1020600082B0F0B50C1C85B002910B93191C254B66
:10207000254E1C60254B0392D2B21A700BAD019015
:1020800030602F7A224B0C9D1F70224B1D60CBB20B
:10209000002B00D1013320490B700EAB9D781F49F6
:1020A0000D70012559781E4B19700F991D4B196041
:1020B0002B1C93401C4A1D49136001335843FFF702
:1020C000F7F9FA21201A8900C003FFF7F1F980B26D
:1020D000FFF722FA642133680F985943FFF7D2FBC8
:1020E000D1230420124A1B01D1588143D15002212F
:1020F000D0580143D1500F4B1D6005B0F0BC08BC57
:1021000002B0184710090020FC08002044090020F4
:10211000180900203409002045090020200900206A
:10212000190900200009002004090020A0860100F0
:1021300000E000E02409002008B5044B01201B68E2
:10214000002B02D0FFF7C8F9002008BD24090020A9
:1021500008B5044B01201B68002B02D0FFF7CCF917
:10216000002008BD24090020034B1A68824200D0D9
:10217000186000207047C04634090020084B012039
:102180001B68002B0AD00022064B07491A70D12287
:1021900012018B580130834300208B507047C0469A
:1021A000240900200C09002000E000E0044B1A681C
:1021B0000123002A02D0034B18600023181C70472B
:1021C0002409002040090020044B1A680123002A3A
:1021D00002D0034B18600023181C7047240900200C
:1021E0003C090020044B1A680123002A02D0034B4B
:1021F00018600023181C70472409002008090020DB
:10220000044B1A680123002A02D0034B18600023F4
:10221000181C70472409002014090020F0B544461A
:102220005F4656464D46F0B4B84B87B098461A689C
:10223000B74B9A4200D100E1B64CB74D2368013B41
:102240009A4240D22B78002B00D043E1B34CB44EDD
:10225000B44FB54834603C60FFF7EEFD221C211CF2
:1022600033689342FCD03B688B42F9D02B78002B2B
:1022700002D00120FEF7B6FF43461A683368AB4828
:1022800051009BB20B523468A9481BB20C52A948AA
:1022900001320468A446634403603B68A6489BB2CD
:1022A0000B523C68A5481BB20C52A54908688446ED
:1022B00063440B6043461A6007B03CBC90469946A5
:1022C000A246AB46F0BD2B78002B00D00FE1934B1C
:1022D000934E9946934F944833603B60FFF7ACFDB3
:1022E0004A46494633689342FCD03B688B42F9D05A
:1022F0002B78002B00D0F6E04246126833688C48F9
:102300003168520081528B49884D894609689BB2D9
:102310008C464946AB521BB263440B603B6886490E
:102320009BB28B52864E82468B46844839681BB2DC
:10233000815232689446424663443360744B136062
:10234000804B1B68002B00D098477F4B1868FFF725
:1023500085FA4B4619687D4B281C98461A7800F080
:1023600035F9434631681A78584600F02FF9281C91
:10237000216800F0BDF95846216800F0B9F92368DA
:10238000291C5E00321C724800F058FF321C59466E
:10239000704800F053FF704B281C9946434649464D
:1023A0001A7800F0F9F96D4B04AE9B4623686C4F28
:1023B00000936C4B301C1B78291C01934A465B46EA
:1023C00000F09EFA3B1C321C03CA03C3664B326802
:1023D0001B689A4253D8654B654D1B68002B03D090
:1023E0002A78012A00D18BE0624B1E68002E0FD0A4
:1023F0002368584659089BB20093022301933B6817
:10240000013102937B6889B2039352464B4BB0472C
:102410002B78002B2CD1D1230421574A1B01D058F3
:1024200001430220D150D1588143D15053490978FA
:10243000002920D1524B19703EE7D12204204E4989
:1024400012018B5883438B504E4B1B68002B00D0DE
:1024500098473D4B1868FFF7F1F900234246136097
:10246000344A1360364A13600122454B1A7023E741
:10247000013B2B70CFE7D1588143D1501CE7434635
:102480001A78384B32481B78324900933E4B00F0A3
:10249000C1FA364B061C1B68354D002B02D02A783A
:1024A000002A30D0334B1B689C46002B0ED023688B
:1024B000019659089BB200933B68013102937B68F7
:1024C00089B20393584652461C4BE0472F4B1B786A
:1024D0002B70A0E70120FEF799FE0120FEF7AEFE6B
:1024E0000028FAD1B2E60120FEF77CFE04E70120C5
:1024F000FEF78CFE0120FEF7A1FE0028FAD1E6E6E9
:102500000220984770E79847CCE7C0465406002061
:10251000E70300000409002020090020FFFF00005D
:102520004C06002050060020D40500204C1100204D
:102530004C170020300900204C1F00204C1B0020AD
:102540001C0900200809002000090020440900207F
:102550004C2100204C0F00204C1900204C1D002065
:10256000280900201809002034090020140900203F
:10257000380900204009002000E000E0190900208F
:102580000C0900203C0900204C13002045090020C4
:1025900008B5034B1B78002B01D1FFF73FFE08BDA8
:1025A0000C09002008B50548FFF750FC044B1860E3
:1025B0000448FFF74BFC044B186008BDC40500201D
:1025C0004C06002010060020500600208023F0B5A5
:1025D0005F4656464D4644465B029340F0B4D140B8
:1025E00083B01A0C6AD0032443079B0F5B4289B265
:1025F0002340161E9E4268D8042A00DD69E0161C9E
:1026000003885B1A0380012E68D043885B1A4380DD
:10261000022E69D083885B1A8380042E61D1C3881F
:102620005B1AC38004239C46B24247D0931B1F1FF2
:10263000BF0801379A46BB009B46531E9B1B022BCB
:1026400024D90023760086199046351C3A1C1F1C9D
:10265000019034687068631A240C641A1B041B0C04
:1026600024041C437368401A1B0C5B1A00041B04EF
:10267000000C034301372C606B6008360835BA4202
:10268000E7D842460198DC44DA4517D063465C003F
:1026900005192B885B1A2B806346013393420DDAB0
:1026A000A31CC3181D886D1A1D80634602339A420D
:1026B00004DD043400190388591A018003B03CBCBE
:1026C00090469946A246AB46F0BD1E1C042A00DC8B
:1026D00095E700239C46002EA8D091E701239C4655
:1026E000A2E703239C469FE702239C469CE7C04643
:1026F000F0B5574645464E46804680200C1CE0B457
:102700004000FEF7DFFE63109A46002B3CDD4300DD
:10271000994653465B009C464646802744461D4DDD
:1027200066448035FF010023EA5E0023E15EBB1AA8
:102730004B43DB13238002344D44B442F3D155465E
:102740005446454340352D1AA44518DD114B6D0004
:102750005D195346990041440E1C802164004000DD
:1027600044444042C9010023EA5E0023E75E8B1A1D
:102770007B43DB13238002342D18B442F3D11CBCFD
:1027800090469946A246F0BD5B00402500249C4639
:10279000D9E7C046580600200123F0B55F465646EB
:1027A0004D4644469340F0B489B00690581E0791B8
:1027B0009B4600282DDD069B01249E1C079B0021C3
:1027C0009D1C5F46A9463B1C5B10CA189042FBDB70
:1027D0005A1E1140C918A14213DD3388069A9C463F
:1027E0004B00D21815883580654615804A46079DEE
:1027F0001288AC4690464A4663441D88158042467E
:102800001A8002239C4601340236E144BC42DAD1EC
:10281000BB4607230593063B04935B46012B65DD0E
:10282000049B5E00002B5BDD069B0293079B0393DA
:10283000049B9B00994600239A465346059A2F49CC
:1028400093401A1C5B00CB5A403252005B428A5ABA
:102850009BB2D34538DD12B21BB2574690469C4618
:102860004846039D029C0197A35F6746AA5F4146C5
:1028700057435943FF13C913C91B67467B43474658
:102880007A43DB13D2139B180027E25F89B2521000
:10289000521AA2530027EA5F9BB25210D21AAA53CF
:1028A0000027E25F52108918218000216A5E2418F7
:1028B00052109B182B80019B2D189946B1444B4612
:1028C0000193CB45D0DC814601239C46029BE24428
:1028D00002330293039B02330393049B9A45ACD1CA
:1028E000059B0496013B0593B34599DC09B03CBCBC
:1028F00090469946A246AB46F0BDC0465806002019
:10290000F0B55F4656464D464446F0B485B0924613
:102910000EAA019102CA0290127849088B46012A38
:102920002BD0002900D16FE0019A0024002600215D
:102930000025D84694466246125F5046005F5243D7
:10294000404312181A60101EB04200D2301CB2422E
:1029500000D9291C013502340433061C4545EAD14F
:102960008046029B4246181C1A60596005B03CBC68
:1029700090469946A246AB46F0BD002944D09C46FD
:1029800000230021994698461F1C50460391019B45
:10299000DB5FC25F5B4352439B18624613601C4A75
:1029A00093422ED88246013292089342FCD350467D
:1029B000111E23D00022824688181E1A45181C1C9E
:1029C000984200D8341C984200D82A1C5208890822
:1029D000231C0029F0D1634650461A60424502D9B3
:1029E0004B469046039301239A460333D1449A46BB
:1029F0000237D444D945CAD10399B2E763461A6075
:102A0000F1E78021C905D5E7002300219846A8E712
:102A1000FFFFFF3FF0B5474680B484B01F1C0AABF0
:102A20001B78141C061C0D1C9846FFF7B5FE0123ED
:102A30000134A3400093434602A801932A1C3B1C87
:102A4000311CFFF75DFF7F220020039B9A4240412B
:102A5000C0B204B004BC9046F0BDC046002B11D1FA
:102A6000002A0FD1002900D1002802D00021C9433B
:102A7000081C07B4024802A14018029003BDC046DA
:102A8000D103000003B4684601B5029800F04CF889
:102A9000019B9E4602B00CBC7047C046F0B54F4645
:102AA000464605042D0C2C1CC0B41704160C3F0C14
:102AB0009946030C7C4375435F4373437D19260C91
:102AC000AD199C46AF4203D980235B029846C444AB
:102AD0004B465143434324042E0C240C2D046644DE
:102AE0002C1959188919201C0CBC90469946F0BD28
:102AF000F0B583B0161C1F1C0090019100F0C8F9BE
:102B0000041C0D1C221C2B1C301C391CFFF7C6FF9B
:102B1000009A019B121A8B410899201C0A604B6095
:102B2000291C03B0F0BDC046F0B5141C83B01D1CB9
:102B30000090019100F0A4FA221C2B1C061C0F1C13
:102B4000FFF7ACFF009A019B121A8B410899301CC9
:102B50000A604B60391C03B0F0BDC046F0B55F465B
:102B600056464D464446F0B445024600C40F83B075
:102B70000F1C6D0A360EA34645D0FF2E25D08023AC
:102B80001B041D4300239A46ED007F3E01937B0208
:102B90005B0A98467800FB0F000E994640D0FF284C
:102BA00038D0802342461B041343DB0098460023A1
:102BB0007F384A46019F30186240411C1F430F2F47
:102BC00069D87D4EBF00F659B746002D45D1082380
:102BD0000193063B9A46DAE793465346022B2FD1E0
:102BE0005B46012400251C40FF236D02DB056D0AB6
:102BF000E4071D432543281C03B03CBC904699467E
:102C0000A246AB46F0BD002D2CD104230193033B1B
:102C10009A46BCE743465A4253410322D31AC8E7B7
:102C200042460123002AC4D0404600F013F9424630
:102C3000431F9A4076235B42181A90460023B8E758
:102C4000032B00D1ADE0012B00D08CE05B46544655
:102C50001C40E4B200230025C7E70C230193093B85
:102C60009A4694E7281C00F0F5F87626431F9D400D
:102C700000237642361A01939A4688E7802500247D
:102C8000ED03FF23B1E74546CB469A46A5E7454607
:102C900093469A46A1E743462C041B0C9C46230C02
:102CA000444626041C1C360C2F0C7443351C664607
:102CB0007D4373437743EB18260C9E19B54203D925
:102CC00080235B029C46674424043304240C1B19B4
:102CD0009D016C1EA5419B0E360C2B43BD19AD0109
:102CE0001D432B0104D5012368081D400543081C22
:102CF000031C7F33002B2CDD690704D00F212940F2
:102D0000042900D00435290103D52C4B1D40031C98
:102D10008033FE2B17DD0124FF231440002564E7D8
:102D20008020C003054209D04346034206D14546F0
:102D300005436D026D0A4C46FF2356E705436D02BD
:102D40006D0AFF2351E70124AD016D0ADBB2144087
:102D50004BE77E235B421B1A1B2B07DD012400235C
:102D60001440002541E7081C5A46C1E79E30291C43
:102D70008540D940681E85410D436B0704D00F2361
:102D80002B40042B00D004356B0104D50124012312
:102D90001440002529E70124AD016D0A14400023E9
:102DA00023E78023DB031D4301245B466D022340A0
:102DB0001C1C6D0AFF2318E760330010FFFFFFF7AC
:102DC00010B5041E35D000F045F89E21091A962949
:102DD00009DC082830DD021C231C083A93405B0202
:102DE0005B0AC8B220E099290CDD0522231C121AC7
:102DF000D3401A1C031C1B339C40231C5C1EA341A4
:102E000013431C1C052801DD431F9C400F4B23402E
:102E1000620704D00F221440042C00D004335A015E
:102E20000ED49B015B0AC8B25B025B0AC005184363
:102E300010BD00200023F7E763025B0AC8B2F3E786
:102E40009F21024A091A1340EBE7C046FFFFFFFB30
:102E50007047C0461C2101231B04984201D3000C7B
:102E600010391B0A984201D3000A08391B099842FD
:102E700001D30009043902A2105C40187047C04613
:102E80000403020201010101000000000000000033
:102E9000F0B544465F4656464D46F0B41C1C85B01E
:102EA000002900DAA9E00F1C0021061C8846101C2E
:102EB000191C002C00DA97E0341C3D1C8246894620
:102EC000B94273D870D04946504600F085F9834620
:102ED000391C301C00F080F95B46181A031C83462D
:102EE000203B9C4600D59CE00023002251460092E6
:102EF000019363469940019151468140019B0091A5
:102F0000BB4200D983E000D17EE0009A019B341CD3
:102F10003D1CA41A9D416346002B00DA9AE000266E
:102F200000270296039701369E40039601268640AD
:102F30000296002800D171E00099019AD3079946C2
:102F40004B464E081E435708002301220CE0AF42B7
:102F500001D1A6420AD8A41BBD4124196D410138F4
:102F6000A4185D41002806D0AF42F0D901382419D9
:102F70006D410028F8D12022029E039F5B465242F9
:102F800036196F4199185AD4281CC8402C1C5B462E
:102F9000DC40002968DB041C8C40231C5946884017
:102FA000021CB61A9F4103E0B0428CD900260027CC
:102FB00041464B1E9941002300910193009A019BC9
:102FC000002554429D41331C6340181C3B1C6B4040
:102FD000191C009B019CC018614105B03CBC904687
:102FE0009946A246AB46F0BD4346DB430C1C9846CF
:102FF000131C00215842A1415EE7002746428F4141
:1030000001214942884652E7B14200D87DE70026B7
:10301000002702960397002800D08DE7029E039FA9
:10302000C6E720215346091ACB400022191C002371
:10303000009201934B4683400B4301935CE75A4651
:1030400020239B1A2A1C9A40201C131C5A46D0404D
:1030500018439BE720260027331A00260296039781
:103060000127DF40039761E75B4620215D46C91ACF
:10307000031CAC40CB40191C231C0B438EE7C046FD
:10308000F0B545464E465746E0B4041C82B00D1CD0
:10309000914698468B4262D85FD04146484600F040
:1030A0009BF8291C061C201C00F096F82023311ADE
:1030B0005B428A46C81865D44B4683401F1C4B466A
:1030C0008B401E1CAF4258D855D0A41BBD410028D0
:1030D00000DA77E00022002300920193013282405F
:1030E000019201238B40009300293CD0FB079846B6
:1030F000404672087B080243012600270CE0AB42E1
:1031000001D1A2420AD8A41A9D4124196D41013966
:10311000A4197D41002906D0AB42F0D90139241908
:103120006D410029F8D1202200980199534652425E
:10313000001969419E183AD42F1CF7405346DD40D0
:10314000002E29DB3C1CB440231C5446A7403A1CEB
:10315000801A99410090019105E082429DD9002397
:103160000024009301940098019902B01CBC904681
:103170009946A246F0BDA342A7D90022002300929F
:103180000193B1E720224B46521AD3401A1C434602
:103190008B401F1C174392E7534620245646E41ADF
:1031A0003B1CB540E3401C1C2B1C2343CDE752467F
:1031B00020239B1A2A1C9A40271C131C5246D740D6
:1031C0001F43BBE720230022581A002300920193DB
:1031D0000132C240019284E710B5002903D1FFF704
:1031E00039FE203002E0081CFFF734FE10BDC04657
:1031F0000E4B70B500251E1C0D4CE41AA410A54200
:1032000004D0AB00F35898470135F8E7FEF714FBFC
:10321000084B00251E1C084CE41AA410A54204D03B
:10322000AB00F35898470135F8E770BD5808002007
:10323000580800205808002058080020002310B526
:10324000934203D0CC5CC4540133F9E710BD0000B5
:1032500000001F008F0060FF70FF000000000000F2
:103260000000000002000000020000000C0000004E
:103270000C0000000C0000000C0000000800000022
:103280000A00000003000000030000000C00000022
:103290000C00000000300000003000000030000092
:1032A0000030000000030000000C000000010000DE
:1032B0000000000091250010000000000000000048
:1032C0000400B207000100000000B207FF7F000009
:1032D00017030100030303010101000000000000C7
:1032E00000000000000000000000000000000000DE
:1032F00000000000000000000000000000000000CE
:1033000000000000000000000000000000000000BD
:103310000000000000000000000000000000044069
:1033200080000000000001000600000000000440D2
:103330008000000000000100090000000001000002
:1033400000000100000000000F000000020000006B
:10335000050000000000000008000000010000005F
:10336000962C00108E2C00108E2C0010862C001035
:10337000D82B0010D82B00107C2C0010862C0010AD
:10338000D82B00107C2C0010D82B0010862C00109D
:10339000DA2B0010DA2B0010DA2B0010202D001091
:0833A000F0FAFF7F01000000BC
:1033A8002C488746000000000000000000000000D4
:1033B8000000000000000000000000000000000005
:1033C8002548874600000000000000002348874683
:1033D8002348874623488746234887462348874605
:1033E80023488746234887462348874623488746F5
:1033F800234887460000000022488746224887461F
:1034080022488746224887462248874622488746D8
:1034180022488746224887462248874622488746C8
:1034280022488746224887462248874622488746B8
:1034380022488746224887462248874622488746A8
:103448002248874622488746000000000000000006
:103458002048874699100010991000109910001004
:1034680099100010B91B0010C51B0010D11B0010CB
:103478009910001099100010991000109910001060
:103488009910001099100010991000109910001050
:10349800991000109910001099100010A52500101F
:1034A8009910001099100010991000109910001030
:1034B8009910001099100010991000101D2200108A
:1034C8009910001099100010991000109910001010
:0834D80099100010991000107A
:1034E000581501000038FFC70A0000000500000061
:1034F000840500200001044800000000E0080020CE
:1035000002007FB100010000BC320010AC3200109C
:1035100000000000D4320010000000000090D00332
:1035200001000000000004480000000000040348FF
:10353000DC3200100102000094050020B8050020D4
:10354000043300100000034800400348020100005B
:1035500000080348F032001001020000F0050020CE
:10356000F0080020000403480001000020060020AD
:10357000503300105C330010A005002048330010C9
:10358000000000000204000002002A000000000009
:10359000000000000002000002002B0000000000FC
:1035A000000000000004000000060020EC080020DD
:1035B0000004034800000000C4050020100600209D
:1035C0000200000001000000C80000000000000030
:1035D0000101010002000000C60200002C010000F1
:1035E00008000000FFFF0000FFFF0000E7030000ED
:1035F000000092012303B5044506D5076309F00ACC
:103600007C0C050E8C0F1111931213148F150817D3
:103610007D18EF195C1BC61C2B1E8B1FE6203D225C
:103620008E23D9241F265F279928CD29FA2A212CF9
:10363000402D592E6B2F75307831733267335234E9
:1036400036351136E436AF3770382A39DA39813AEF
:10365000203BB53B413CC43C3E3DAE3D143E713E3B
:10366000C43E0E3F4E3F843FB03FD33FEB3FFA3F57
:10367000FF3FFA3FEB3FD33FB03F843F4E3F0E3F0B
:10368000C43E713E143EAE3D3E3DC43C413CB53B64
:10369000203B813ADA392A397038AF37E4361136AF
:1036A0003635523467337332783175306B2F592E7B
:1036B000402D212CFA2ACD2999285F271F26D924AD
:1036C0008E233D22E6208B1F2B1EC61C5C1BEF1990
:1036D0007D1808178F151314931211118C0F050EF6
:1036E0007C0CF00A6309D5074506B5042303920153
:1036F00000006EFEDDFC4BFBBBF92BF89DF610F5D0
:1037000084F3FBF174F0EFEE6DEDEDEB71EA081769
:1037100083E711E6A4E43AE3D5E175E01ADFC3DDFF
:1037200072DC27DBE1D9A1D867D733D606D59FA6AF
:10373000A7D195D08BCF88CE8DCD99CCAECBCACA30
:10374000EFC91CC951C890C7D6C626C67FC5E0C4FC
:103750004BC4BFC33CC3C2C252C2ECC18FC13CC147
:10376000F2C0B2C07CC050C02DC015C006C03CC164
:103770008FC1ECC152C2C2C23CC3BFC34BC4E0C480
:103780007FC526C6D6C690C751C81CC9EFC9CACACC
:10379000AECB99CC8DCD88CE8BCF95D0A7D1C0D2D2
:1037A000DFD306D533D667D7A1D8E1D927DB72DCC2
:1037B000C3DD1ADF75E0D5E13AE3A4E411E683E75F
:1037C000F8E871EAEDEB6DEDEFEE74F0FBF184F3E8
:1037D00010F59DF62BF8BBF94BFBDDFC6EFE0000EF
:1037E00000000000000000000000000000000000D9
:0400000510001019BE
:00000001FF
